012013123096CSAN3F      020COSAN       ON      NM   R$  000000000393000000000039930000000003891000000000395300000000039450000000003890000000000397000036000000000000000706000000000002791268000000000000009999123100000010000000000000BRCSANACNOR6108
012013123062CSAN3T      030COSAN       ON      NM016R$  000000000394600000000039470000000003944000000000394500000000039450000000000000000000000000000004000000000000002000000000000007890960000000000000009999123100000010000000000000BRCSANACNOR6108
012013123062CSAN3T      030COSAN       ON      NM091R$  000000000403800000000040390000000004038000000000403800000000040390000000000000000000000000000002000000000000000500000000000002019043000000000000009999123100000010000000000000BRCSANACNOR6108
012013123002CSCO34      010CISCO       DRN          R$  000000000527000000000052700000000005270000000000527000000000052700000000005205000000000527500001000000000000000100000000000000527000000000000000009999123100000010000000000000BRCSCOBDR004111
012013123002CSMG3       010COPASA      ON      NM   R$  000000000366800000000038130000000003668000000000374300000000037200000000003720000000000372400526000000000000117900000000000441301900000000000000009999123100000010000000000000BRCSMGACNOR5128
012013123096CSMG3F      020COPASA      ON      NM   R$  000000000379900000000038620000000003700000000000377600000000037550000000003621000000000386200012000000000000000433000000000001635284000000000000009999123100000010000000000000BRCSMGACNOR5128
012013123014CSMO11      010ISHARES CSMOCI           R$  000000000470100000000047130000000004701000000000470700000000047130000000004713000000000480000002000000000000000020000000000000094140000000000000009999123100000010000000000000BRCSMOCTF002100
012013123002CSNA3       010SID NACIONALON           R$  000000000144000000000014630000000001438000000000144500000000014380000000001438000000000144608514000000000005003100000000007233788400000000000000009999123100000010000000000000BRCSNAACNOR6244
012013123096CSNA3F      020SID NACIONALON           R$  000000000141400000000014600000000001414000000000144600000000014350000000001435000000000145300087000000000000001847000000000002671976000000000000009999123100000010000000000000BRCSNAACNOR6244
012013123062CSNA3T      030SID NACIONALON        060R$  000000000147300000000014740000000001459000000000147100000000014600000000000000000000000000000004000000000000005300000000000007799666000000000000009999123100000010000000000000BRCSNAACNOR6244
012013123062CSNA3T      030SID NACIONALON        091R$  000000000149000000000014910000000001485000000000148800000000014860000000000000000000000000000004000000000000003000000000000004465550000000000000009999123100000010000000000000BRCSNAACNOR6244
012013123078CSNAA1      070CSNA        ON        000R$  000000000039500000000003950000000000395000000000039500000000003950000000000000000000000000000001000000000000000100000000000000039500000000000106402014012000000010000000000000BRCSNAACNOR6241
012013123078CSNAA11     070CSNA        ON        000R$  000000000039400000000003940000000000387000000000038700000000003870000000000000000000000000000009000000000000049200000000000019081600000000000106702014012000000010000000000000BRCSNAACNOR6243
012013123078CSNAA14     070CSNA  FM    ON        000R$  000000000010500000000001050000000000102000000000010400000000001020000000000072000000000011800011000000000000035700000000000003747600000000000136702014012000000010000000000000BRCSNAACNOR6243
012013123078CSNAA15     070CSNA        ON        000R$  000000000003600000000000390000000000034000000000003600000000000390000000000000000000000004000009000000000000023200000000000000849800000000000146702014012000000010000000000000BRCSNAACNOR6243
012013123078CSNAA16     070CSNA        ON        000R$  000000000000300000000000050000000000003000000000000400000000000050000000000000000000000000000003000000000000020000000000000000080000000000000160002014012000000010000000000000BRCSNAACNOR6244
012013123078CSNAA3      070CSNA        ON        000R$  000000000019700000000001970000000000197000000000019700000000001970000000000000000000000000000001000000000000000100000000000000019700000000000126702014012000000010000000000000BRCSNAACNOR6243
012013123078CSNAA35     070CSNA  FM    ON        000R$  000000000001700000000000170000000000017000000000001700000000000170000000000000000000000000000001000000000000003500000000000000059500000000000151702014012000000010000000000000BRCSNAACNOR6244
012013123078CSNAA43     070CSNA        ON        000R$  000000000014900000000001520000000000143000000000014900000000001520000000000000000000000000000003000000000000001700000000000000254800000000000131702014012000000010000000000000BRCSNAACNOR6243
012013123078CSNAA44     070CSNA  FM    ON        000R$  000000000008100000000000810000000000079000000000008000000000000790000000000000000000000000000004000000000000010000000000000000800000000000000140002014012000000010000000000000BRCSNAACNOR6244
012013123078CSNAB11     070CSNA        ON        000R$  000000000039300000000003940000000000392000000000039300000000003940000000000000000000000000000008000000000000047200000000000018549600000000000106702014021700000010000000000000BRCSNAACNOR6243
012013123078CSNAB13     070CSNA        ON        000R$  000000000018700000000001870000000000187000000000018700000000001870000000000000000000000000000001000000000000007000000000000001309000000000000130002014021700000010000000000000BRCSNAACNOR6244
012013123078CSNAB43     070CSNA  FM    ON        000R$  000000000015000000000001500000000000145000000000014700000000001480000000000000000000000000000004000000000000010500000000000001550300000000000135002014021700000010000000000000BRCSNAACNOR6244
012013123078CSNAB44     070CSNA  FM    ON        000R$  000000000008200000000000820000000000079000000000008100000000000820000000000004000000000008200013000000000000020500000000000001669000000000000145002014021700000010000000000000BRCSNAACNOR6244
012013123078CSNAB45     070CSNA  FM    ON        000R$  000000000003700000000000370000000000037000000000003700000000000370000000000000000000000000000002000000000000004000000000000000148000000000000155002014021700000010000000000000BRCSNAACNOR6244
012013123078CSNAB5      070CSNA  FM    ON        000R$  000000000010200000000001040000000000102000000000010300000000001030000000000000000000000000000004000000000000011800000000000001218900000000000141402014021700000010000000000000BRCSNAACNOR6241
012013123078CSNAB6      070CSNA  FM    ON        000R$  000000000005000000000000510000000000050000000000005000000000000510000000000006000000000000000004000000000000008000000000000000404000000000000151402014021700000010000000000000BRCSNAACNOR6241
012013123082CSNAM12     080CSNAE       ON        000R$  000000000000200000000000020000000000002000000000000200000000000020000000000000000000000001400001000000000000003000000000000000006000000000000116702014012000000010000000000000BRCSNAACNOR6243
012013123082CSNAM14     080CSNAE FM    ON        000R$  000000000001300000000000200000000000013000000000001400000000000200000000000016000000000003000012000000000000016000000000000000234200000000000136702014012000000010000000000000BRCSNAACNOR6243
012013123082CSNAM15     080CSNAE       ON        000R$  000000000004800000000000480000000000043000000000004400000000000470000000000047000000000005900012000000000000013800000000000000608100000000000146702014012000000010000000000000BRCSNAACNOR6243
012013123082CSNAM3      080CSNAE       ON        000R$  000000000000600000000000060000000000006000000000000600000000000060000000000000000000000000000001000000000000003600000000000000021600000000000126702014012000000010000000000000BRCSNAACNOR6243
012013123082CSNAM44     080CSNAE FM    ON        000R$  000000000002100000000000220000000000021000000000002100000000000220000000000000000000000000000014000000000000092200000000000002018400000000000140002014012000000010000000000000BRCSNAACNOR6244
012013123082CSNAN13     080CSNAE FM    ON        000R$  000000000001900000000000190000000000019000000000001900000000000190000000000000000000000000000001000000000000003500000000000000066500000000000130002014021700000010000000000000BRCSNAACNOR6244
012013123082CSNAN41     080CSNAE       ON        000R$  000000000000300000000000030000000000003000000000000300000000000030000000000000000000000000000001000000000000000100000000000000000300000000000111702014021700000010000000000000BRCSNAACNOR6243
012013123082CSNAN43     080CSNAE FM    ON        000R$  000000000002900000000000330000000000029000000000003000000000000320000000000000000000000000000003000000000000005600000000000000170700000000000135002014021700000010000000000000BRCSNAACNOR6244
012013123082CSNAN44     080CSNAE FM    ON        000R$  000000000006700000000000670000000000065000000000006500000000000650000000000000000000000000000005000000000000011100000000000000728500000000000145002014021700000010000000000000BRCSNAACNOR6244
012013123002CTAX11      010CONTAX      UNT     N2   R$  000000000202100000000020210000000001990000000000199900000000020000000000001990000000000200000055000000000000030800000000000061584500000000000000009999123100000010000000000000BRCTAXCDAM19100
012013123002CTAX3       010CONTAX      ON      N2   R$  000000000054500000000005480000000000545000000000054600000000005480000000000000000000000054900006000000000000001000000000000000546200000000000000009999123100000010000000000000BRCTAXACNOR3113
012013123002CTAX4       010CONTAX      PN      N2   R$  000000000036000000000003640000000000357000000000036100000000003640000000000360000000000036400017000000000000005900000000000002130000000000000000009999123100000010000000000000BRCTAXACNPR0114
012013123096CTAX4F      020CONTAX      PN      N2   R$  000000000036300000000003650000000000363000000000036400000000003650000000000327000000000039000002000000000000000010000000000000003640000000000000009999123100000010000000000000BRCTAXACNPR0114
012013123002CTIP3       010CETIP       ON  EJ  NM   R$  000000000239000000000024200000000002384000000000240600000000024200000000002409000000000242003697000000000001348900000000003245521500000000000000009999123100000010000000000000BRCTIPACNOR2121
012013123096CTIP3F      020CETIP       ON  EJ  NM   R$  000000000237600000000024230000000002376000000000240200000000024000000000002400000000000241900028000000000000000882000000000002121403000000000000009999123100000010000000000000BRCTIPACNOR2121
012013123002CTKA4       010KARSTEN     PN           R$  000000000008100000000000810000000000081000000000008100000000000810000000000075000000000008100001000000000000000100000000000000008100000000000000009999123100000010000000000000BRCTKAACNPR7041
012013123002CTNM4       010COTEMINAS   PN           R$  000000000022600000000002260000000000225000000000022500000000002250000000000217000000000022500002000000000000037000000000000008325100000000000000009999123100000010000000000000BRCTNMACNPR6128
012013123002CTSA3       010SANTANENSE  ON           R$  000000000050100000000006120000000000501000000000055200000000006120000000000480000000000061300005000000000000001600000000000000883900000000000000009999123100000010000000000000BRCTSAACNOR3052
012013123002CTSA4       010SANTANENSE  PN           R$  000000000053000000000005300000000000530000000000053000000000005300000000000525000000000053000001000000000000000100000000000000053000000000000000009999123100000010000000000000BRCTSAACNPR0052
012013123012CTXT11      010FII C TEXTILCI           R$  000000000033100000000003310000000000331000000000033100000000003310000000000301000000000033100002000000000000000050000000000000016550000000000000009999123100000010000000000000BRCTXTCTF014112
012013123002CVCB3       010CVC BRASIL  ON      NM   R$  000000000151800000000015300000000001491000000000152800000000015300000000001505000000000153000496000000000000604100000000000923089400000000000000009999123100000010000000000000BRCVCBACNOR1100
012013123096CVCB3F      020CVC BRASIL  ON      NM   R$  000000000151000000000015200000000001490000000000150800000000014900000000001490000000000152000013000000000000000304000000000000458615000000000000009999123100000010000000000000BRCVCBACNOR1100
012013123012CXTL11      010FII CX TRX  CI           R$  000000007000000000000714000000000070000000000007078100000000714000000000071000000000007200000007000000000000000065000000000004600800000000000000009999123100000010000000000000BRCXTLCTF003125
012013123002CYRE3       010CYRELA REALTON      NM   R$  000000000144000000000014560000000001435000000000144400000000014400000000001440000000000144205036000000000003765000000000005439927500000000000000009999123100000010000000000000BRCYREACNOR7125
012013123096CYRE3F      020CYRELA REALTON      NM   R$  000000000143800000000014850000000001412000000000142900000000014150000000001415000000000148500054000000000000001424000000000002035231000000000000009999123100000010000000000000BRCYREACNOR7125
012013123062CYRE3T      030CYRELA REALTON      NM060R$  000000000147600000000014770000000001476000000000147600000000014770000000000000000000000000000002000000000000240000000000000354439008000000000000009999123100000010000000000000BRCYREACNOR7125
012013123062CYRE3T      030CYRELA REALTON      NM091R$  000000000147800000000014790000000001478000000000147800000000014790000000000000000000000000000002000000000000004900000000000007243999000000000000009999123100000010000000000000BRCYREACNOR7125
012013123062CYRE3T      030CYRELA REALTON      NM182R$  000000000151300000000015140000000001513000000000151300000000015140000000000000000000000000000002000000000000000300000000000000453946000000000000009999123100000010000000000000BRCYREACNOR7125
012013123078CYREA14     070CYRE  FM    ON      NM000R$  000000000006300000000000720000000000063000000000006600000000000630000000000000000000000000000013000000000000042000000000000002793000000000000140002014012000000010000000000000BRCYREACNOR7125
012013123078CYREA44     070CYRE  FM    ON      NM000R$  000000000003200000000000370000000000032000000000003400000000000320000000000000000000000000000005000000000000014100000000000000493200000000000145002014012000000010000000000000BRCYREACNOR7125
012013123078CYREB14     070CYRE  FM    ON      NM000R$  000000000008500000000000920000000000085000000000008800000000000870000000000000000000000000000011000000000000028900000000000002560500000000000140002014021700000010000000000000BRCYREACNOR7125
012013123078CYREB44     070CYRE  FM    ON      NM000R$  000000000005600000000000620000000000055000000000005700000000000570000000000000000000000000000008000000000000020900000000000001203500000000000145002014021700000010000000000000BRCYREACNOR7125
012013123082CYREM15     080CYREE FM    ON      NM000R$  000000000006500000000000650000000000055000000000006000000000000590000000000000000000000000000011000000000000038500000000000002341500000000000150002014012000000010000000000000BRCYREACNOR7125
012013123082CYREM44     080CYREE FM    ON      NM000R$  000000000002800000000000310000000000028000000000002900000000000300000000000000000000000000000004000000000000012100000000000000359500000000000145002014012000000010000000000000BRCYREACNOR7125
012013123082CYREN15     080CYREE FM    ON      NM000R$  000000000007400000000000740000000000066000000000007000000000000730000000000000000000000000000011000000000000029000000000000002048000000000000150002014021700000010000000000000BRCYREACNOR7125
012013123082CYREN43     080CYREE FM    ON      NM000R$  000000000001500000000000150000000000015000000000001500000000000150000000000000000000000000000001000000000000000900000000000000013500000000000135002014021700000010000000000000BRCYREACNOR7125
012013123082CYREN44     080CYREE FM    ON      NM000R$  000000000004800000000000490000000000042000000000004600000000000460000000000000000000000000000005000000000000016800000000000000788000000000000145002014021700000010000000000000BRCYREACNOR7125
012013123002CZLT33      010COSAN LTD   DR3          R$  000000000320700000000033000000000003207000000000327600000000033000000000003300000000000339400477000000000000277700000000000909982700000000000000009999123100000010000000000000BRCZLTBDR009105
012013123002DAGB33      010DUFRY AG    DR3          R$  000000004300000000000430000000000041500000000004183100000000418160000000041700000000004181600671000000000000029223000000001222432309000000000000009999123100000010000000000000BRDAGBBDR008100
012013123002DASA3       010DASA        ON      NM   R$  000000000146900000000014800000000001456000000000146600000000014560000000001456000000000146003605000000000000950900000000001394027300000000000000009999123100000010000000000000BRDASAACNOR1108
012013123096DASA3F      020DASA        ON      NM   R$  000000000147200000000014750000000001442000000000146100000000014460000000001445000000000150000014000000000000000610000000000000891141000000000000009999123100000010000000000000BRDASAACNOR1108
012013123002DAYC4       010DAYCOVAL    PN  EJ  N2   R$  000000000079600000000008030000000000788000000000079900000000008000000000000796000000000080000026000000000000164600000000000131598900000000000000009999123100000010000000000000BRDAYCACNPR2130
012013123002DIRR3       010DIRECIONAL  ON      NM   R$  000000000118800000000012120000000001188000000000120000000000012000000000001200000000000120100965000000000000578200000000000693848000000000000000009999123100000010000000000000BRDIRRACNOR0104
012013123096DIRR3F      020DIRECIONAL  ON      NM   R$  000000000119500000000012100000000001027000000000118900000000011110000000001113000000000120000024000000000000000751000000000000893038000000000000009999123100000010000000000000BRDIRRACNOR0104
012013123002DISB34      010WALT DISNEY DRN          R$  000000001771500000000177150000000017715000000001771500000000177150000000017661000000001818500001000000000000000100000000000001771500000000000000009999123100000010000000000000BRDISBBDR006103
012013123014DIVO11      010IT NOW IDIV CI           R$  000000000337100000000034150000000003371000000000339100000000033880000000003370000000000338800035000000000000005940000000000020146400000000000000009999123100000010000000000000BRDIVOCTF002100
012013123096DIVO11F     020IT NOW IDIV CI           R$  000000000337000000000033940000000003201000000000332400000000033700000000003200000000000345000010000000000000000034000000000000113026000000000000009999123100000010000000000000BRDIVOCTF002100
012013123002DOHL4       010DOHLER      PN  EJ       R$  000000000054200000000005420000000000542000000000054200000000005420000000000522000000000054400001000000000000000100000000000000054200000000000000009999123100000010000000000000BRDOHLACNPR9055
012013123002DTCY3       010DTCOM-DIRECTON           R$  000000000003600000000000360000000000036000000000003600000000000360000000000032000000000003900002000000000000000400000000000000014400000000000000009999123100000010000000000000BRDTCYACNOR5107
012013123002DTEX3       010DURATEX     ON  EJ  NM   R$  000000000128100000000013180000000001276000000000130200000000013150000000001309000000000131502684000000000001130900000000001473065000000000000000009999123100000010000000000000BRDTEXACNOR3116
012013123096DTEX3F      020DURATEX     ON  EJ  NM   R$  000000000128200000000013150000000001276000000000129900000000013060000000001306000000000132800031000000000000000924000000000001200519000000000000009999123100000010000000000000BRDTEXACNOR3116
012013123002DUQE4       010MET DUQUE   PN           R$  000000000068000000000006800000000000680000000000068000000000006800000000000550000000000072000001000000000000000100000000000000068000000000000000009999123100000010000000000000BRDUQEACNPR2040
012013123002EALT4       010ACO ALTONA  PN  EJ       R$  000000000268900000000026890000000002570000000000261100000000025700000000002310000000000269400003000000000000000300000000000000783400000000000000009999123100000010000000000000BREALTACNPR1124
012013123002EBTP3       010EMBRATEL PARON *         R$  000000000090000000000009000000000000839000000000084700000000008390000000000838000000000097000005000000000000700000000000000000593400000000000000009999123100010000000000000000BREBTPACNOR3116
012013123096EBTP3F      020EMBRATEL PARON *         R$  000000000089000000000009000000000000890000000000089800000000009000000000000815000000000090000004000000000000059000000000000000052999000000000000009999123100010000000000000000BREBTPACNOR3116
012013123002EBTP4       010EMBRATEL PARPN *         R$  000000000090100000000009010000000000865000000000088800000000008650000000000864000000000090000015000000000003000000000000000002665700000000000000009999123100010000000000000000BREBTPACNPR0121
012013123014ECOO11      010ISHARES ECOOCI           R$  000000000530100000000054140000000005301000000000540900000000053990000000005399000000000548200037000000000000019550000000000105759270000000000000009999123100000010000000000000BRECOOCTF008100
012013123002ECOR3       010ECORODOVIAS ON      NM   R$  000000000146500000000014900000000001465000000000147700000000014800000000001470000000000148103196000000000000597100000000000882400600000000000000009999123100000010000000000000BRECORACNOR8107
012013123096ECOR3F      020ECORODOVIAS ON      NM   R$  000000000150000000000015000000000001479000000000148100000000014840000000001484000000000150000008000000000000000219000000000000324525000000000000009999123100000010000000000000BRECORACNOR8107
012013123012EDFO11B     010FII OURINVESCI      MB   R$  000000002211000000000221100000000022110000000002211000000000221100000000020565000000002211000001000000000000000001000000000000022110000000000000009999123100000010000000000000BREDFOCTF004196
012013123012EDGA11B     010FII GALERIA CI  ER  MB   R$  000000000737900000000074790000000007270000000000731500000000072770000000007277000000000740000030000000000000000947000000000006927377000000000000009999123100000010000000000000BREDGACTF001115
012013123002EEEL4       010CEEE-GT     PN      N1   R$  000000000020000000000002000000000000163000000000016400000000001700000000000167000000000017600013000000000000009300000000000001533600000000000000009999123100000010000000000000BREEELACNPR5102
012013123062EEEL4T      030CEEE-GT     PN      N1182R$  000000000017200000000001730000000000172000000000017200000000001730000000000000000000000000000002000000000000007500000000000001292347000000000000009999123100000010000000000000BREEELACNPR5102
012013123002ELET3       010ELETROBRAS  ON      N1   R$  000000000059900000000006070000000000587000000000059500000000005870000000000587000000000059303734000000000001448600000000000863061400000000000000009999123100000010000000000000BRELETACNOR6151
012013123096ELET3F      020ELETROBRAS  ON      N1   R$  000000000059400000000006070000000000565000000000059600000000005650000000000565000000000060800030000000000000000527000000000000314364000000000000009999123100000010000000000000BRELETACNOR6151
012013123062ELET3T      030ELETROBRAS  ON      N1060R$  000000000060900000000006100000000000609000000000060900000000006100000000000000000000000000000002000000000000004000000000000002439820000000000000009999123100000010000000000000BRELETACNOR6151
012013123062ELET3T      030ELETROBRAS  ON      N1091R$  000000000061400000000006150000000000614000000000061400000000006150000000000000000000000000000004000000000000011000000000000006757103000000000000009999123100000010000000000000BRELETACNOR6151
012013123096ELET5F      020ELETROBRAS  PNA     N1   R$  000000000290100000000029010000000002901000000000290100000000029010000000002901000000000450000001000000000000000050000000000000145050000000000000009999123100000010000000000000BRELETACNPA9066
012013123002ELET6       010ELETROBRAS  PNB     N1   R$  000000000101100000000010220000000000993000000000100600000000009930000000000993000000000099403596000000000001022100000000001028397900000000000000009999123100000010000000000000BRELETACNPB7066
012013123096ELET6F      020ELETROBRAS  PNB     N1   R$  000000000101100000000010890000000000800000000000100400000000008000000000000800000000000105000041000000000000001104000000000001108897000000000000009999123100000010000000000000BRELETACNPB7066
012013123062ELET6T      030ELETROBRAS  PNB     N1030R$  000000000102200000000010230000000001022000000000102200000000010230000000000000000000000000000002000000000000004800000000000004905651000000000000009999123100000010000000000000BRELETACNPB7066
012013123062ELET6T      030ELETROBRAS  PNB     N1060R$  000000000103000000000010310000000001030000000000103000000000010310000000000000000000000000000002000000000000001000000000000001030731000000000000009999123100000010000000000000BRELETACNPB7066
012013123062ELET6T      030ELETROBRAS  PNB     N1091R$  000000000103600000000010370000000001036000000000103600000000010370000000000000000000000000000002000000000000000200000000000000207282000000000000009999123100000010000000000000BRELETACNPB7066
012013123096ELPL3F      020ELETROPAULO ON      N2   R$  000000000109000000000010900000000001090000000000109000000000010900000000001011000000000000000003000000000000000020000000000000021800000000000000009999123100000010000000000000BRELPLACNOR9127
012013123002ELPL4       010ELETROPAULO PN      N2   R$  000000000098600000000009860000000000936000000000096000000000009360000000000936000000000094404641000000000002002700000000001923070800000000000000009999123100000010000000000000BRELPLACNPR6118
012013123096ELPL4F      020ELETROPAULO PN      N2   R$  000000000097500000000010210000000000941000000000097000000000009410000000000941000000000102000100000000000000002209000000000002142032000000000000009999123100000010000000000000BRELPLACNPR6118
012013123062ELPL4T      030ELETROPAULO PN      N2030R$  000000000097900000000009800000000000979000000000097900000000009800000000000000000000000000000002000000000000031200000000000030567857000000000000009999123100000010000000000000BRELPLACNPR6118
012013123062ELPL4T      030ELETROPAULO PN      N2060R$  000000000099400000000009950000000000965000000000098400000000009660000000000000000000000000000006000000000000003000000000000002953444000000000000009999123100000010000000000000BRELPLACNPR6118
012013123062ELPL4T      030ELETROPAULO PN      N2182R$  000000000102900000000010300000000001029000000000102900000000010300000000000000000000000000000002000000000000001200000000000001235801000000000000009999123100000010000000000000BRELPLACNPR6118
012013123002EMAE4       010EMAE        PN           R$  000000000057500000000005750000000000575000000000057500000000005750000000000540000000000057500001000000000000000100000000000000057500000000000000009999123100000010000000000000BREMAEACNPR1106
012013123002EMBR3       010EMBRAER     ON  EJ  NM   R$  000000000189800000000019090000000001876000000000189500000000018890000000001889000000000190005500000000000001984600000000003761943300000000000000009999123100000010000000000000BREMBRACNOR4166
012013123096EMBR3F      020EMBRAER     ON  EJ  NM   R$  000000000186000000000019050000000001860000000000189900000000019050000000001900000000000190500030000000000000000760000000000001443458000000000000009999123100000010000000000000BREMBRACNOR4166
012013123062EMBR3T      030EMBRAER     ON  EJ  NM016R$  000000000191000000000019110000000001910000000000191000000000019110000000000000000000000000000002000000000000005000000000000009552109000000000000009999123100000010000000000000BREMBRACNOR4166
012013123002ENBR3       010ENERGIAS BR ON  EJ  NM   R$  000000000114200000000011480000000001130000000000113700000000011350000000001135000000000113903957000000000000786400000000000894269900000000000000009999123100000010000000000000BRENBRACNOR2116
012013123096ENBR3F      020ENERGIAS BR ON  EJ  NM   R$  000000000113700000000011500000000001113000000000113600000000011280000000001128000000000114900025000000000000000645000000000000732728000000000000009999123100000010000000000000BRENBRACNOR2116
012013123058ENEV3       010ENEVA       ON      NM   R$  000000000029600000000003090000000000292000000000030300000000003000000000000299000000000030002179000000000001677600000000000508612900000000000000009999123100000010000000000000BRENEVACNOR8100
012013123096ENEV3F      020ENEVA       ON      NM   R$  000000000029900000000003990000000000299000000000032800000000003990000000000305000000000039900011000000000000000242000000000000079438000000000000009999123100000010000000000000BRENEVACNOR8100
012013123062ENEV3T      030ENEVA       ON      NM030R$  000000000030200000000003030000000000302000000000030200000000003030000000000000000000000000000002000000000000001200000000000000362628000000000000009999123100000010000000000000BRENEVACNOR8100
012013123062ENEV3T      030ENEVA       ON      NM060R$  000000000030400000000003050000000000303000000000030300000000003040000000000000000000000000000004000000000000022000000000000006686150000000000000009999123100000010000000000000BRENEVACNOR8100
012013123002ENGI11      010ENERGISA    UNT          R$  000000000125000000000012500000000001250000000000125000000000012500000000001210000000000130000001000000000000001000000000000001250000000000000000009999123100000010000000000000BRENGICDAM16110
012013123002ENGI4       010ENERGISA    PN           R$  000000000022900000000002290000000000225000000000022700000000002250000000000213000000000023000003000000000000005800000000000001316600000000000000009999123100000010000000000000BRENGIACNPR7116
012013123002ENMA3B      010CEMAR       ON      MB   R$  000000000152000000000015500000000001510000000000151500000000015500000000001400000000000160000004000000000000001800000000000002728000000000000000009999123100000010000000000000BRENMAACNOR5111
012013123002EQTL3       010EQUATORIAL  ON      NM   R$  000000000229900000000023420000000002297000000000232000000000023150000000002311000000000231501689000000000001463400000000003396173700000000000000009999123100000010000000000000BREQTLACNOR0114
012013123096EQTL3F      020EQUATORIAL  ON      NM   R$  000000000230600000000023520000000002209000000000232400000000023520000000002352000000000240000016000000000000000447000000000001038977000000000000009999123100000010000000000000BREQTLACNOR0114
012013123002ESTC3       010ESTACIO PARTON      NM   R$  000000000204500000000020870000000002017000000000203800000000020410000000002037000000000204106674000000000002060100000000004199734900000000000000009999123100000010000000000000BRESTCACNOR5108
012013123096ESTC3F      020ESTACIO PARTON      NM   R$  000000000205500000000021040000000002020000000000205300000000020250000000002001000000000204600043000000000000001173000000000002408580000000000000009999123100000010000000000000BRESTCACNOR5108
012013123062ESTC3T      030ESTACIO PARTON      NM030R$  000000000209100000000020920000000002059000000000207200000000020600000000000000000000000000000006000000000000002000000000000004145039000000000000009999123100000010000000000000BRESTCACNOR5108
012013123002ESTR4       010ESTRELA     PN           R$  000000000002600000000000270000000000024000000000002500000000000260000000000026000000000002700010000000000000015900000000000000405100000000000000009999123100000010000000000000BRESTRACNPR0142
012013123096ESTR4F      020ESTRELA     PN           R$  000000000002600000000000260000000000026000000000002600000000000260000000000026000000000002700001000000000000000008000000000000000208000000000000009999123100000010000000000000BRESTRACNPR0142
012013123002ETER3       010ETERNIT     ON  EJ  NM   R$  000000000087500000000008820000000000868000000000087100000000008740000000000870000000000087400338000000000000083800000000000073011800000000000000009999123100000010000000000000BRETERACNOR3219
012013123096ETER3F      020ETERNIT     ON  EJ  NM   R$  000000000088700000000009000000000000870000000000087700000000008700000000000875000000000089100043000000000000001073000000000000942037000000000000009999123100000010000000000000BRETERACNOR3219
012013123062ETER3T      030ETERNIT     ON  EJ  NM060R$  000000000088800000000008890000000000888000000000088800000000008890000000000000000000000000000002000000000000003000000000000002665162000000000000009999123100000010000000000000BRETERACNOR3219
012013123002EUCA4       010EUCATEX     PN  EJ  N1   R$  000000000067800000000006940000000000667000000000067900000000006800000000000675000000000068000081000000000000063600000000000043185600000000000000009999123100000010000000000000BREUCAACNPR8033
012013123002EVEN3       010EVEN        ON      NM   R$  000000000080000000000008180000000000800000000000081200000000008150000000000813000000000081506081000000000001780100000000001446853000000000000000009999123100000010000000000000BREVENACNOR8107
012013123096EVEN3F      020EVEN        ON      NM   R$  000000000081500000000008250000000000815000000000081700000000008200000000000810000000000082400008000000000000000282000000000000230426000000000000009999123100000010000000000000BREVENACNOR8107
012013123002EXXO34      010EXXON MOBIL DRN          R$  000000000596500000000059900000000005965000000000598700000000059900000000005885000000000601000002000000000000003300000000000019759500000000000000009999123100000010000000000000BREXXOBDR006113
012013123002EZTC3       010EZTEC       ON      NM   R$  000000000283000000000029140000000002829000000000289300000000029140000000002893000000000291400898000000000000307600000000000890241900000000000000009999123100000010000000000000BREZTCACNOR0106
012013123096EZTC3F      020EZTEC       ON      NM   R$  000000000299000000000029900000000002800000000000287200000000028000000000002800000000000299500028000000000000000755000000000002168499000000000000009999123100000010000000000000BREZTCACNOR0106
012013123062EZTC3T      030EZTEC       ON      NM060R$  000000000287300000000028740000000002873000000000287300000000028740000000000000000000000000000002000000000000000900000000000002585969000000000000009999123100000010000000000000BREZTCACNOR0106
012013123012FAED11B     010FII ANH EDUCCI      MB   R$  000000001361000000000136100000000013610000000001361000000000136100000000013621000000001395000002000000000000000026000000000000353860000000000000009999123100000010000000000000BRFAEDCTF003148
012013123012FAMB11B     010FII ALMIRANTCI      MB   R$  000000042300000000004230000000000423000000000042300000000004230000000000412500000000042300000004000000000000000012000000000005076000000000000000009999123100000010000000000000BRFAMBCTF018229
012013123002FESA4       010FERBASA     PN  EJ  N1   R$  000000000131900000000013300000000001313000000000132100000000013190000000001312000000000131900032000000000000023700000000000031315100000000000000009999123100000010000000000000BRFESAACNPR5045
012013123096FESA4F      020FERBASA     PN  EJ  N1   R$  000000000131800000000013180000000001259000000000131200000000012590000000001259000000000138100004000000000000000096000000000000125994000000000000009999123100000010000000000000BRFESAACNPR5045
012013123012FEXC11B     010FII EXCELLENCI      MB   R$  000000001107000000000111990000000011070000000001110800000000111000000000011100000000001118000017000000000000000977000000000010853078000000000000009999123100000010000000000000BRFEXCCTF007154
012013123012FFCI11      010FII RIOB RC CI           R$  000000000015700000000001570000000000155000000000015500000000001560000000000156000000000015700028000000000000014757000000000002301950000000000000009999123100000010000000000000BRFFCICTF005224
012013123002FHER3       010FER HERINGERON      NM   R$  000000000069400000000007180000000000694000000000070700000000007000000000000699000000000070000168000000000000074700000000000052853000000000000000009999123100000010000000000000BRFHERACNOR5102
012013123096FHER3F      020FER HERINGERON      NM   R$  000000000071000000000007100000000000710000000000071000000000007100000000000634000000000071000001000000000000000047000000000000033370000000000000009999123100000010000000000000BRFHERACNOR5102
012013123062FHER3T      030FER HERINGERON      NM060R$  000000000071000000000007110000000000710000000000071000000000007110000000000000000000000000000002000000000000003000000000000002131290000000000000009999123100000010000000000000BRFHERACNOR5102
012013123002FIBR3       010FIBRIA      ON      NM   R$  000000000279500000000028230000000002762000000000278300000000027650000000002765000000000277003966000000000001131900000000003150581800000000000000009999123100000010000000000000BRFIBRACNOR9101
012013123096FIBR3F      020FIBRIA      ON      NM   R$  000000000273400000000028190000000002734000000000277700000000027370000000002737000000000281900019000000000000000562000000000001561009000000000000009999123100000010000000000000BRFIBRACNOR9101
012013123012FIGS11      010FII GEN SHOPCI           R$  000000000998000000000099950000000009980000000000999400000000099950000000009808000000000999500006000000000000000891000000000008905530000000000000009999123100000010000000000000BRFIGSCTF009105
012013123012FIIB11      010FII INDL BR CI           R$  000000003349900000000334990000000033499000000003349900000000334990000000033007000000003349900001000000000000000005000000000000167495000000000000009999123100000010000000000000BRFIIBCTF001124
012013123012FIIP11B     010FII RB CAP ICI      MB   R$  000000001560000000000159780000000015581000000001568000000000159780000000015585000000001597800005000000000000000054000000000000846727000000000000009999123100000010000000000000BRFIIPCTF001148
012013123012FIXX11      010FII FATORFIXCI           R$  000000000900000000000090000000000009000000000000900000000000090000000000008504000000000900000001000000000000000001000000000000009000000000000000009999123100000010000000000000BRFIXXCTF004106
012013123002FJTA4       010FORJA TAURUSPN      N2   R$  000000000022500000000002280000000000222000000000022700000000002280000000000228000000000022900078000000000000185200000000000042059000000000000000009999123100000010000000000000BRFJTAACNPR2152
012013123096FJTA4F      020FORJA TAURUSPN      N2   R$  000000000022500000000002250000000000225000000000022500000000002250000000000225000000000022600002000000000000000085000000000000019125000000000000009999123100000010000000000000BRFJTAACNPR2152
012013123012FLMA11      010FII S F LIMACI           R$  000000000020900000000002090000000000208000000000020800000000002080000000000206000000000020800007000000000000000209000000000000043642000000000000009999123100000010000000000000BRFLMACTF009215
012013123012FLRP11B     010FII FLORIPA CI      MB   R$  000000005350000000000538500000000053000000000005338700000000530000000000053000000000005385000005000000000000000020000000000001067750000000000000009999123100000010000000000000BRFLRPCTF006148
012013123002FLRY3       010FLEURY      ON      NM   R$  000000000183000000000018400000000001822000000000183500000000018400000000001833000000000184000339000000000000200000000000000367124100000000000000009999123100000010000000000000BRFLRYACNOR5109
012013123096FLRY3F      020FLEURY      ON      NM   R$  000000000182800000000018400000000001800000000000180100000000018000000000001800000000000185200004000000000000000063000000000000113468000000000000009999123100000010000000000000BRFLRYACNOR5109
012013123062FLRY3T      030FLEURY      ON      NM016R$  000000000184500000000018460000000001845000000000184500000000018460000000000000000000000000000004000000000000017700000000000032659477000000000000009999123100000010000000000000BRFLRYACNOR5109
012013123012FMOF11      010FII MEMORIALCI           R$  000000001600000000000160000000000016000000000001600000000000160000000000014100000000001599800001000000000000000001000000000000016000000000000000009999123100000010000000000000BRFMOFCTF010185
012013123014FNAM11      010FINAM       CI *         R$  000000000000700000000000070000000000006000000000000600000000000070000000000006000000000000700014000000000443605000000000000003105230000000000000009999123100010000000000000000BRFNAMCTF013002
012013123096FNAM11F     020FINAM       CI *         R$  000000000000600000000000060000000000006000000000000600000000000060000000000006000000000000900003000000000000000968000000000000000005000000000000009999123100010000000000000000BRFNAMCTF013002
012013123012FPAB11      010FII A BRANCACI           R$  000000003700000000000370000000000037000000000003700000000000370000000000036500000000003749900001000000000000000011000000000000407000000000000000009999123100000010000000000000BRFPABCTF011188
012013123002FRAS4       010FRAS-LE     PN  EJ  N1   R$  000000000056500000000005950000000000565000000000059200000000005950000000000301000000000059500012000000000000018300000000000010850600000000000000009999123100000010000000000000BRFRASACNPR7132
012013123096FRAS4F      020FRAS-LE     PN  EJ  N1   R$  000000000052500000000005250000000000525000000000052500000000005250000000000475000000000057500001000000000000000015000000000000007875000000000000009999123100000010000000000000BRFRASACNPR7132
012013123002FRIO3       010METALFRIO   ON      NM   R$  000000000029700000000002980000000000286000000000029300000000002930000000000293000000000030000064000000000000062400000000000018298500000000000000009999123100000010000000000000BRFRIOACNOR2106
012013123096FRIO3F      020METALFRIO   ON      NM   R$  000000000030000000000003000000000000300000000000030000000000003000000000000295000000000035000001000000000000000011000000000000003300000000000000009999123100000010000000000000BRFRIOACNOR2106
012013123012FVBI11B     010FII VBI 4440CI      MB   R$  000000000799800000000079980000000007950000000000795100000000079500000000007950000000000796000004000000000000000123000000000000977997000000000000009999123100000010000000000000BRFVBICTF004118
012013123002GEOO34      010GE          DRN ED       R$  000000000662500000000066250000000006625000000000662500000000066250000000006550000000000666500001000000000000000100000000000000662500000000000000009999123100000010000000000000BRGEOOBDR000113
012013123002GETI3       010AES TIETE   ON           R$  000000000177500000000017990000000001769000000000177800000000017800000000001774000000000178000636000000000000250400000000000445456200000000000000009999123100000010000000000000BRGETIACNOR7157
012013123096GETI3F      020AES TIETE   ON           R$  000000000177300000000017810000000001773000000000177700000000017790000000001779000000000180900014000000000000000401000000000000712712000000000000009999123100000010000000000000BRGETIACNOR7157
012013123062GETI3T      030AES TIETE   ON        361R$  000000000197100000000019720000000001971000000000197100000000019720000000000000000000000000000002000000000000000100000000000000197180000000000000009999123100000010000000000000BRGETIACNOR7157
012013123002GETI4       010AES TIETE   PN           R$  000000000191500000000019420000000001901000000000191700000000019090000000001909000000000191001947000000000000609900000000001169693900000000000000009999123100000010000000000000BRGETIACNPR4157
012013123096GETI4F      020AES TIETE   PN           R$  000000000191000000000019500000000001891000000000191900000000019300000000001891000000000193000040000000000000000845000000000001621678000000000000009999123100000010000000000000BRGETIACNPR4157
012013123062GETI4T      030AES TIETE   PN        030R$  000000000193300000000019340000000001933000000000193300000000019340000000000000000000000000000002000000000000009700000000000018751967000000000000009999123100000010000000000000BRGETIACNPR4157
012013123002GFSA3       010GAFISA      ON  EJ  NM   R$  000000000035000000000003590000000000348000000000035400000000003530000000000352000000000035309759000000000010478800000000003716914000000000000000009999123100000010000000000000BRGFSAACNOR3108
012013123096GFSA3F      020GAFISA      ON  EJ  NM   R$  000000000035100000000003720000000000351000000000035700000000003580000000000352000000000035800026000000000000000493000000000000176431000000000000009999123100000010000000000000BRGFSAACNOR3108
012013123002GGBR3       010GERDAU      ON      N1   R$  000000000149200000000015240000000001492000000000150500000000015090000000001501000000000151000162000000000000034100000000000051327700000000000000009999123100000010000000000000BRGGBRACNOR1152
012013123096GGBR3F      020GERDAU      ON      N1   R$  000000000151000000000015240000000001499000000000150300000000015240000000001500000000000152600017000000000000000224000000000000336813000000000000009999123100000010000000000000BRGGBRACNOR1152
012013123062GGBR3T      030GERDAU      ON      N1182R$  000000000156800000000015690000000001568000000000156800000000015690000000000000000000000000000002000000000000003000000000000004704724000000000000009999123100000010000000000000BRGGBRACNOR1152
012013123002GGBR4       010GERDAU      PN      N1   R$  000000000183900000000018600000000001824000000000183700000000018340000000001831000000000183407575000000000003467400000000006369971400000000000000009999123100000010000000000000BRGGBRACNPR8152
012013123096GGBR4F      020GERDAU      PN      N1   R$  000000000181400000000018530000000001814000000000184000000000018250000000001825000000000184900110000000000000002444000000000004497734000000000000009999123100000010000000000000BRGGBRACNPR8152
012013123062GGBR4T      030GERDAU      PN      N1060R$  000000000187700000000018780000000001864000000000186800000000018650000000000000000000000000000004000000000000001545000000000002887466000000000000009999123100000010000000000000BRGGBRACNPR8152
012013123062GGBR4T      030GERDAU      PN      N1091R$  000000000188400000000018850000000001884000000000188400000000018850000000000000000000000000000002000000000000001000000000000001884752000000000000009999123100000010000000000000BRGGBRACNPR8152
012013123078GGBRA17     070GGBR        PN      N1000R$  000000000015500000000001550000000000153000000000015400000000001530000000000151000000000000000003000000000000005800000000000000898400000000000169002014012000000010000000000000BRGGBRACNPR8151
012013123078GGBRA18     070GGBR        PN      N1000R$  000000000007800000000000870000000000075000000000007700000000000800000000000067000000000011900007000000000000004200000000000000324100000000000179002014012000000010000000000000BRGGBRACNPR8151
012013123078GGBRA19     070GGBR  FM    PN      N1000R$  000000000002900000000000330000000000025000000000002700000000000270000000000024000000000003000016000000000000025900000000000000720200000000000189002014012000000010000000000000BRGGBRACNPR8151
012013123078GGBRA20     070GGBR  FM    PN      N1000R$  000000000000700000000000080000000000007000000000000700000000000070000000000008000000000001100006000000000000010800000000000000078000000000000198002014012000000010000000000000BRGGBRACNPR8148
012013123078GGBRA21     070GGBR  FM    PN      N1000R$  000000000000200000000000020000000000002000000000000200000000000020000000000001000000000000200001000000000000010000000000000000020000000000000208002014012000000010000000000000BRGGBRACNPR8148
012013123078GGBRA48     070GGBR  FM    PN      N1000R$  000000000005100000000000620000000000049000000000005500000000000520000000000000000000000000000017000000000000030300000000000001667600000000000183402014012000000010000000000000BRGGBRACNPR8150
012013123078GGBRA49     070GGBR  FM    PN      N1000R$  000000000001000000000000100000000000010000000000001000000000000100000000000000000000000000000002000000000000004000000000000000040000000000000194002014012000000010000000000000BRGGBRACNPR8151
012013123078GGBRB17     070GGBR        PN      N1000R$  000000000018700000000001870000000000187000000000018700000000001870000000000151000000000000000001000000000000000300000000000000056100000000000170002014021700000010000000000000BRGGBRACNPR8152
012013123078GGBRB18     070GGBR  FM    PN      N1000R$  000000000011500000000001260000000000110000000000011600000000001140000000000000000000000000000021000000000000047800000000000005545500000000000179002014021700000010000000000000BRGGBRACNPR8151
012013123078GGBRB19     070GGBR  FM    PN      N1000R$  000000000006500000000000750000000000060000000000006400000000000640000000000054000000000007500013000000000000024800000000000001601100000000000188202014021700000010000000000000BRGGBRACNPR8149
012013123078GGBRB20     070GGBR  FM    PN      N1000R$  000000000002800000000000280000000000027000000000002700000000000280000000000027000000000003500009000000000000015200000000000000414700000000000199002014021700000010000000000000BRGGBRACNPR8151
012013123078GGBRB22     070GGBR        PN      N1000R$  000000000000500000000000050000000000005000000000000500000000000050000000000000000000000000000001000000000000001000000000000000005000000000000220002014021700000010000000000000BRGGBRACNPR8152
012013123078GGBRB48     070GGBR  FM    PN      N1000R$  000000000008000000000000890000000000075000000000008000000000000800000000000000000000000000000016000000000000036200000000000002921900000000000185002014021700000010000000000000BRGGBRACNPR8152
012013123078GGBRB49     070GGBR  FM    PN      N1000R$  000000000004200000000000460000000000041000000000004400000000000450000000000000000000000000000005000000000000009300000000000000409800000000000194002014021700000010000000000000BRGGBRACNPR8151
012013123078GGBRC20     070GGBR        PN      N1000R$  000000000006000000000000600000000000060000000000006000000000000600000000000000000000000010000001000000000000000200000000000000012000000000000199002014031700000010000000000000BRGGBRACNPR8151
012013123082GGBRM17     080GGBRE       PN      N1000R$  000000000000700000000000070000000000007000000000000700000000000070000000000000000000000004000001000000000000004800000000000000033600000000000169002014012000000010000000000000BRGGBRACNPR8151
012013123082GGBRM18     080GGBRE FM    PN      N1000R$  000000000002700000000000270000000000024000000000002400000000000240000000000006000000000003800004000000000000010900000000000000268800000000000179002014012000000010000000000000BRGGBRACNPR8151
012013123082GGBRM19     080GGBRE FM    PN      N1000R$  000000000007400000000000760000000000065000000000007200000000000760000000000000000000000000000021000000000000050800000000000003678000000000000189002014012000000010000000000000BRGGBRACNPR8151
012013123082GGBRM48     080GGBRE FM    PN      N1000R$  000000000004300000000000440000000000039000000000004100000000000390000000000000000000000004700006000000000000015600000000000000646800000000000183402014012000000010000000000000BRGGBRACNPR8150
012013123082GGBRM49     080GGBRE FM    PN      N1000R$  000000000011100000000001160000000000097000000000010800000000001160000000000000000000000000000030000000000000069500000000000007554100000000000194002014012000000010000000000000BRGGBRACNPR8151
012013123082GGBRN18     080GGBRE FM    PN      N1000R$  000000000005000000000000510000000000047000000000004800000000000490000000000000000000000000000011000000000000022500000000000001097800000000000179002014021700000010000000000000BRGGBRACNPR8151
012013123082GGBRN19     080GGBRE FM    PN      N1000R$  000000000009200000000000950000000000086000000000009000000000000890000000000000000000000000000016000000000000037300000000000003381900000000000188202014021700000010000000000000BRGGBRACNPR8149
012013123082GGBRN47     080GGBRE FM    PN      N1000R$  000000000003500000000000360000000000033000000000003400000000000330000000000000000000000000000004000000000000007100000000000000246000000000000174002014021700000010000000000000BRGGBRACNPR8151
012013123082GGBRN48     080GGBRE FM    PN      N1000R$  000000000007700000000000780000000000071000000000007400000000000730000000000000000000000000000016000000000000034400000000000002548300000000000185002014021700000010000000000000BRGGBRACNPR8152
012013123002GOAU3       010GERDAU MET  ON      N1   R$  000000000189200000000018970000000001855000000000187400000000018970000000001868000000000189800064000000000000036500000000000068412700000000000000009999123100000010000000000000BRGOAUACNOR1233
012013123002GOAU4       010GERDAU MET  PN      N1   R$  000000000231800000000023480000000002297000000000232400000000023400000000002320000000000234002099000000000001211300000000002815090000000000000000009999123100000010000000000000BRGOAUACNPR8233
012013123096GOAU4F      020GERDAU MET  PN      N1   R$  000000000230100000000023500000000002300000000000231300000000023010000000002301000000000234900057000000000000001370000000000003169416000000000000009999123100000010000000000000BRGOAUACNPR8233
012013123002GOLL4       010GOL         PN      N2   R$  000000000102600000000010810000000001021000000000105400000000010480000000001048000000000105204874000000000001755600000000001851600100000000000000009999123100000010000000000000BRGOLLACNPR4120
012013123096GOLL4F      020GOL         PN      N2   R$  000000000103000000000010700000000001001000000000104600000000010010000000001001000000000105000027000000000000000764000000000000799309000000000000009999123100000010000000000000BRGOLLACNPR4120
012013123062GOLL4T      030GOL         PN      N2060R$  000000000105000000000010510000000001050000000000105000000000010510000000000000000000000000000002000000000000000300000000000000315225000000000000009999123100000010000000000000BRGOLLACNPR4120
012013123062GOLL4T      030GOL         PN      N2091R$  000000000108900000000010900000000001089000000000108900000000010900000000000000000000000000000002000000000000030000000000000032686080000000000000009999123100000010000000000000BRGOLLACNPR4120
012013123014GOVE11      010IT NOW IGCT CI           R$  000000000209700000000021030000000002095000000000209800000000020950000000000000000000000209600007000000000000008500000000000017837270000000000000009999123100000010000000000000BRGOVECTF004100
012013123008GPCP3       010GPC PART    ON           R$  000000000004900000000000510000000000048000000000004900000000000480000000000048000000000004900062000000000000357400000000000017656200000000000000009999123100000010000000000000BRGPCPACNOR4106
012013123002GPIV33      010GP INVEST   DR3          R$  000000000045300000000004530000000000430000000000043400000000004300000000000430000000000045300108000000000000071100000000000030902900000000000000009999123100000010000000000000BRGPIVBDR003104
012013123096GPIV33F     020GP INVEST   DR3          R$  000000000043600000000004460000000000406000000000043600000000004460000000000446000000000044900003000000000000000034000000000000014824000000000000009999123100000010000000000000BRGPIVBDR003104
012013123002GRND3       010GRENDENE    ON      NM   R$  000000000180200000000018090000000001791000000000180100000000018090000000001800000000000180900705000000000000154700000000000278729400000000000000009999123100000010000000000000BRGRNDACNOR3132
012013123096GRND3F      020GRENDENE    ON      NM   R$  000000000183800000000018380000000001771000000000180600000000018000000000001800000000000183500036000000000000000938000000000001694401000000000000009999123100000010000000000000BRGRNDACNOR3132
012013123062GRND3T      030GRENDENE    ON      NM060R$  000000000182700000000018280000000001827000000000182700000000018280000000000000000000000000000002000000000000001500000000000002741310000000000000009999123100000010000000000000BRGRNDACNOR3132
012013123002GSGI34      010GOLDMANSACHSDRN          R$  000000000416000000000041650000000004160000000000416200000000041650000000004105000000000415500003000000000000001200000000000004995000000000000000009999123100000010000000000000BRGSGIBDR008113
012013123002GSHP3       010GENERALSHOPPON      NM   R$  000000000090700000000009430000000000900000000000093900000000009430000000000909000000000094300050000000000000047500000000000044643700000000000000009999123100000010000000000000BRGSHPACNOR7100
012013123002GTDP3B      010GTD PART    ON  EJ  MB   R$  000000000001500000000000150000000000015000000000001500000000000150000000000012000000000001500001000000000000000100000000000000001500000000000000009999123100000010000000000000BRGTDPACNOR4123
012013123002GTDP4B      010GTD PART    PN  EJ  MB   R$  000000000001600000000000160000000000016000000000001600000000000160000000000013000000000001600003000000000000002900000000000000046400000000000000009999123100000010000000000000BRGTDPACNPR1123
012013123002GUAR3       010GUARARAPES  ON           R$  000000001034300000000107510000000010279000000001049500000000105000000000009900000000001050000050000000000000054100000000000567817800000000000000009999123100000010000000000000BRGUARACNOR4142
012013123002GUAR4       010GUARARAPES  PN           R$  000000000926100000000096000000000009261000000000952100000000095500000000009250000000000955000023000000000000013000000000000123782200000000000000009999123100000010000000000000BRGUARACNPR1142
012013123096GUAR4F      020GUARARAPES  PN           R$  000000000923000000000092300000000009230000000000923000000000092300000000008445000000001014500001000000000000000013000000000000119990000000000000009999123100000010000000000000BRGUARACNPR1142
012013123012GWIC11      010FII GWI LOG CI  ER       R$  000000001849800000000184980000000018498000000001849800000000184980000000016600000000001849900001000000000000000001000000000000018498000000000000009999123100000010000000000000BRGWICCTF008141
012013123012GWIR11      010FII GWI RI  CIA ER       R$  000000002879500000000287950000000028795000000002879500000000287950000000000000000000002879500001000000000000000001000000000000028795000000000000009999123100000010000000000000BRGWIRCTF006113
012013123002HAGA4       010HAGA S/A    PN           R$  000000000014400000000001460000000000135000000000014200000000001450000000000138000000000014500031000000000000017300000000000002456700000000000000009999123100000010000000000000BRHAGAACNPR4103
012013123002HBOR3       010HELBOR      ON      NM   R$  000000000076100000000007850000000000755000000000077400000000007800000000000780000000000078101212000000000000340600000000000263659700000000000000009999123100000010000000000000BRHBORACNOR3108
012013123096HBOR3F      020HELBOR      ON      NM   R$  000000000079000000000007900000000000755000000000077000000000007700000000000761000000000078600018000000000000000545000000000000419964000000000000009999123100000010000000000000BRHBORACNOR3108
012013123096HBTS5F      020HABITASUL   PNA          R$  000000000158000000000015800000000001580000000000158000000000015800000000001580000000000000000001000000000000000005000000000000007900000000000000009999123100000010000000000000BRHBTSACNPA3117
012013123012HCRI11B     010FII CRIANCA CI      MB   R$  000000002240000000000225000000000022400000000002249000000000225000000000021900000000002250000004000000000000000013000000000000292372000000000000009999123100000010000000000000BRHCRICTF006207
012013123096HETA4F      020HERCULES    PN           R$  000000000003100000000000310000000000031000000000003100000000000310000000000030000000000003200001000000000000000100000000000000003100000000000000009999123100000010000000000000BRHETAACNPR9135
012013123012HGBS11      010FII CSHGSHOPCI           R$  000000016189000000001618900000000161700000000016188000000001618900000000161302000000016189000009000000000000000020000000000003237610000000000000009999123100000010000000000000BRHGBSCTF000180
012013123012HGCR11      010FII CSHG CRICI           R$  000000009900000000000990000000000099000000000009900000000000990000000000097000000000009900000003000000000000000027000000000002673000000000000000009999123100000010000000000000BRHGCRCTF000112
012013123012HGJH11      010FII CSHGJHSFCI           R$  000000011878900000001187890000000113500000000011615900000001136500000000113500000000011699400008000000000000000008000000000000929277000000000000009999123100000010000000000000BRHGJHCTF006137
012013123012HGLG11      010FII CSHG LOGCI           R$  000000010800000000001080000000000108000000000010800000000001080000000000107980000000010800000013000000000000000139000000000015012000000000000000009999123100000010000000000000BRHGLGCTF004138
012013123012HGRE11      010FII HG REAL CI           R$  000000014200000000001420000000000141500000000014191700000001420000000000140315000000014200000019000000000000000204000000000028951162000000000000009999123100000010000000000000BRHGRECTF006163
012013123002HGTX3       010CIA HERING  ON      NM   R$  000000000294900000000030050000000002949000000000298500000000029900000000002985000000000299002420000000000000630000000000001880903000000000000000009999123100000010000000000000BRHGTXACNOR9124
012013123096HGTX3F      020CIA HERING  ON      NM   R$  000000000296000000000030000000000002950000000000297500000000029900000000002961000000000301700095000000000000002154000000000006408920000000000000009999123100000010000000000000BRHGTXACNOR9124
012013123062HGTX3T      030CIA HERING  ON      NM016R$  000000000298900000000029900000000002989000000000298900000000029900000000000000000000000000000002000000000000003000000000000008969962000000000000009999123100000010000000000000BRHGTXACNOR9124
012013123062HGTX3T      030CIA HERING  ON      NM060R$  000000000300500000000030190000000003005000000000300800000000030190000000000000000000000000000004000000000000001200000000000003610253000000000000009999123100000010000000000000BRHGTXACNOR9124
012013123002HOME34      010HOME DEPOT  DRN          R$  000000000969900000000097000000000009699000000000969900000000097000000000009595000000000974500002000000000000003100000000000030069900000000000000009999123100000010000000000000BRHOMEBDR002107
012013123002HOOT4       010HOTEIS OTHONPN           R$  000000000008200000000000830000000000082000000000008200000000000830000000000081000000000008400002000000000000002000000000000000165000000000000000009999123100000010000000000000BRHOOTACNPR9014
012013123096HOOT4F      020HOTEIS OTHONPN           R$  000000000010000000000001000000000000100000000000010000000000001000000000000083000000000011200001000000000000000200000000000000020000000000000000009999123100000010000000000000BRHOOTACNPR9014
012013123002HRTP3       010HRT PETROLEOON      NM   R$  000000000009100000000000940000000000089000000000009200000000000910000000000091000000000009203739000000000006679500000000000614327200000000000000009999123100000010000000000000BRHRTPACNOR2102
012013123096HRTP3F      020HRT PETROLEOON      NM   R$  000000000008200000000000930000000000082000000000008200000000000930000000000090000000000009300006000000000000000121000000000000009993000000000000009999123100000010000000000000BRHRTPACNOR2102
012013123062HRTP3S      030HRT PETROLEOON      NM060R$  000000000009400000000000950000000000094000000000009400000000000950000000000000000000000000000002000000000000100000000000000009457170000000000000009999123100000010000000000000BRHRTPACNOR2102
012013123062HRTP3T      030HRT PETROLEOON      NM060R$  000000000009200000000000930000000000092000000000009200000000000930000000000000000000000000000002000000000000010000000000000000924742000000000000009999123100000010000000000000BRHRTPACNOR2102
012013123012HTMX11B     010FII HOTEL MXCI      MB   R$  000000002761000000000278000000000027610000000002775800000000278000000000027705000000002780000023000000000000000428000000000011880668000000000000009999123100000010000000000000BRHTMXCTF000180
012013123002HYPE3       010HYPERMARCAS ON      NM   R$  000000000177100000000018060000000001751000000000177000000000017650000000001765000000000176706251000000000001819900000000003221858500000000000000009999123100000010000000000000BRHYPEACNOR0105
012013123096HYPE3F      020HYPERMARCAS ON      NM   R$  000000000176100000000018000000000001751000000000177100000000017550000000001755000000000181400034000000000000000751000000000001330500000000000000009999123100000010000000000000BRHYPEACNOR0105
012013123062HYPE3T      030HYPERMARCAS ON      NM016R$  000000000177400000000017750000000001774000000000177400000000017750000000000000000000000000000002000000000000022000000000000039047694000000000000009999123100000010000000000000BRHYPEACNOR0105
012013123062HYPE3T      030HYPERMARCAS ON      NM030R$  000000000179700000000017980000000001797000000000179700000000017980000000000000000000000000000002000000000000002500000000000004493450000000000000009999123100000010000000000000BRHYPEACNOR0105
012013123074IBOVB5      070IBOV  FM    IBO       000R$  000000026040000000002693000000000260400000000026485000000002693000000000000000000000000000000002000000000000000060000000000015891000000000500000002014021200000010050000000000BRIBOVINDM18003
012013123074IBOVB51     070IBOV  FM    IBO       000R$  000000020210000000002201000000000202100000000021290000000002201000000000000000000000000000000002000000000000000050000000000010645000000000510000002014021200000010051000000000BRIBOVINDM18003
012013123074IBOVB52     070IBOV  FM    IBO       000R$  000000013650000000001394000000000136500000000013732800000001394000000000000000000000000000000003000000000000000140000000000019226000000000520000002014021200000010052000000000BRIBOVINDM18003
012013123074IBOVB53     070IBOV  FM    IBO       000R$  000000009340000000000934000000000093400000000009340000000000934000000000000000000000000000000002000000000000000060000000000005604000000000530000002014021200000010053000000000BRIBOVINDM18003
012013123074IBOVB54     070IBOV  FM    IBO       000R$  000000006050000000000611000000000060500000000006056700000000606000000000000000000000000000000004000000000000000760000000000046031000000000540000002014021200000010054000000000BRIBOVINDM18003
012013123074IBOVB55     070IBOV  FM    IBO       000R$  000000004330000000000433000000000043300000000004330000000000433000000000000000000000000000000001000000000000000030000000000001299000000000550000002014021200000010055000000000BRIBOVINDM18003
012013123074IBOVB56     070IBOV  FM    IBO       000R$  000000002190000000000229000000000021900000000002240000000000229000000000000000000000000000000003000000000000000400000000000008960000000000560000002014021200000010056000000000BRIBOVINDM18003
012013123074IBOVD50     070IBOVE FM    IBO       000R$  000000037710000000003771000000000377100000000037710000000003771000000000000000000000000000000001000000000000000030000000000011313000000000500000002014041600000010050000000000BRIBOVINDM18003
012013123074IBOVD51     070IBOVE FM    IBO       000R$  000000031110000000003111000000000311100000000031110000000003111000000000000000000000000000000001000000000000000030000000000009333000000000510000002014041600000010051000000000BRIBOVINDM18003
012013123074IBOVD56     070IBOV  FM    IBO       000R$  000000008300000000000830000000000083000000000008300000000000830000000000000000000000000000000001000000000000000100000000000008300000000000560000002014041600000010056000000000BRIBOVINDM18003
012013123074IBOVD58     070IBOVE       IBO       000R$  000000004250000000000425000000000042500000000004250000000000425000000000000000000000000000000001000000000000000500000000000021250000000000580000002014041600000010058000000000BRIBOVINDM18003
012013123074IBOVF17     070IBOV  FM    IBO       000R$  000000033800000000003380000000000338000000000033800000000003380000000000000000000000000000000001000000000000000010000000000003380000000000520000002014061800000010052000000000BRIBOVINDM18003
012013123074IBOVF19     070IBOV        IBO       000R$  000000009000000000000910000000000090000000000009050000000000910000000000000000000000000000000002000000000000000200000000000018100000000000580000002014061800000010058000000000BRIBOVINDM18003
012013123074IBOVF7      070IBOVE FM    IBO       000R$  000000046400000000004640000000000464000000000046400000000004640000000000000000000000000000000001000000000000000010000000000004640000000000500000002014061800000010050000000000BRIBOVINDM18003
012013123075IBOVN5      080IBOVE FM    IBO       000R$  000000006400000000000650000000000064000000000006460000000000650000000000000000000000000000000004000000000000000500000000000032300000000000500000002014021200000010050000000000BRIBOVINDM18003
012013123075IBOVP50     080IBOVE FM    IBO       000R$  000000012000000000001200000000000120000000000012000000000001200000000000000000000000000000000001000000000000000200000000000024000000000000500000002014041600000010050000000000BRIBOVINDM18003
012013123075IBOVP52     080IBOVE FM    IBO       000R$  000000018810000000001881000000000188100000000018810000000001881000000000000000000000000000000001000000000000000030000000000005643000000000520000002014041600000010052000000000BRIBOVINDM18003
012013123075IBOVR17     080IBOVE FM    IBO       000R$  000000021800000000002180000000000218000000000021800000000002180000000000000000000000000000000001000000000000000010000000000002180000000000520000002014061800000010052000000000BRIBOVINDM18003
012013123075IBOVR7      080IBOVE FM    IBO       000R$  000000015450000000001545000000000154500000000015450000000001545000000000000000000000000000000001000000000000000100000000000015450000000000500000002014061800000010050000000000BRIBOVINDM18003
012013123075IBOVX25     080IBOVE       IBO       000R$  000000022000000000002200000000000217000000000021900000000002170000000000000000000000000000000003000000000000000300000000000065700000000000500000002014121700000010050000000000BRIBOVINDM18002
012013123002IDNT3       010IDEIASNET   ON      NM   R$  000000000016300000000001680000000000162000000000016400000000001650000000000162000000000016500207000000000000423200000000000069762500000000000000009999123100000010000000000000BRIDNTACNOR5110
012013123096IDNT3F      020IDEIASNET   ON      NM   R$  000000000016700000000001670000000000167000000000016700000000001670000000000163000000000016700002000000000000000045000000000000007515000000000000009999123100000010000000000000BRIDNTACNOR5110
012013123062IDNT3T      030IDEIASNET   ON      NM060R$  000000000016800000000001690000000000168000000000016800000000001690000000000000000000000000000002000000000000008000000000000001350310000000000000009999123100000010000000000000BRIDNTACNOR5110
012013123002IDVL4       010INDUSVAL    PN      N2   R$  000000000056100000000005990000000000559000000000058500000000005990000000000559000000000060000031000000000000026200000000000015348600000000000000009999123100000010000000000000BRIDVLACNPR2125
012013123002IGBR3       010IGB S/A     ON           R$  000000000048200000000004820000000000481000000000048100000000004820000000000481000000000048500003000000000000000700000000000000337000000000000000009999123100000010000000000000BRIGBRACNOR7031
012013123096IGBR3F      020IGB S/A     ON           R$  000000000045100000000004510000000000451000000000045100000000004510000000000451000000000048600001000000000000000039000000000000017589000000000000009999123100000010000000000000BRIGBRACNOR7031
012013123002IGTA3       010IGUATEMI    ON      NM   R$  000000000220000000000022440000000002200000000000222100000000022300000000002217000000000223001198000000000000345900000000000768552700000000000000009999123100000010000000000000BRIGTAACNOR5114
012013123096IGTA3F      020IGUATEMI    ON      NM   R$  000000000220500000000022200000000002200000000000220800000000022100000000002210000000000222800006000000000000000156000000000000344535000000000000009999123100000010000000000000BRIGTAACNOR5114
012013123002IMBI4       010DOC IMBITUBAPN           R$  000000000007800000000000850000000000078000000000008200000000000850000000000072000000000008500007000000000000018000000000000001490000000000000000009999123100000010000000000000BRIMBIACNPR1114
012013123096IMBI4F      020DOC IMBITUBAPN           R$  000000000007800000000000780000000000078000000000007800000000000780000000000078000000000012200001000000000000000010000000000000000780000000000000009999123100000010000000000000BRIMBIACNPR1114
012013123002IMCH3       010IMC HOLDINGSON      NM   R$  000000000180700000000018400000000001790000000000181200000000018250000000001808000000000182500517000000000000167600000000000303857200000000000000009999123100000010000000000000BRIMCHACNOR4102
012013123096IMCH3F      020IMC HOLDINGSON      NM   R$  000000000185000000000019000000000001850000000000187500000000019000000000001606000000000205900002000000000000000046000000000000086250000000000000009999123100000010000000000000BRIMCHACNOR4102
012013123002INEP3       010INEPAR      ON      N1   R$  000000000009500000000001020000000000094000000000010100000000001020000000000091000000000010200012000000000000012700000000000001293900000000000000009999123100000010000000000000BRINEPACNOR1137
012013123096INEP3F      020INEPAR      ON      N1   R$  000000000008000000000000800000000000080000000000008000000000000800000000000076000000000022900001000000000000000044000000000000003520000000000000009999123100000010000000000000BRINEPACNOR1137
012013123002INEP4       010INEPAR      PN      N1   R$  000000000008300000000000880000000000081000000000008500000000000880000000000084000000000008800068000000000000469600000000000040113300000000000000009999123100000010000000000000BRINEPACNPR8137
012013123096INEP4F      020INEPAR      PN      N1   R$  000000000007600000000000760000000000076000000000007600000000000760000000000076000000000008700001000000000000000025000000000000001900000000000000009999123100000010000000000000BRINEPACNPR8137
012013123062INEP4T      030INEPAR      PN      N1120R$  000000000008500000000000860000000000085000000000008500000000000860000000000000000000000000000002000000000000050000000000000004285705000000000000009999123100000010000000000000BRINEPACNPR8137
012013123062INEP4T      030INEPAR      PN      N1182R$  000000000008700000000000880000000000087000000000008700000000000880000000000000000000000000000002000000000000080000000000000006965360000000000000009999123100000010000000000000BRINEPACNPR8137
012013123002INET3       010INEPAR TEL  ON           R$  000000000001200000000000130000000000011000000000001200000000000120000000000011000000000001200026000000000000130700000000000001571800000000000000009999123100000010000000000000BRINETACNOR3102
012013123096INET3F      020INEPAR TEL  ON           R$  000000000001100000000000110000000000011000000000001100000000000110000000000011000000000000000001000000000000000049000000000000000539000000000000009999123100000010000000000000BRINETACNOR3102
012013123014ISUS11      010IT NOW ISE  CI           R$  000000000245400000000024550000000002447000000000245400000000024470000000000000000000000244800003000000000000003900000000000009573690000000000000009999123100000010000000000000BRISUSCTF003100
012013123002ITEC3       010ITAUTEC     ON           R$  000000000290000000000029000000000002689000000000279200000000026890000000002100000000000269000011000000000000001300000000000003629700000000000000009999123100000010000000000000BRITECACNOR6141
012013123002ITLC34      010INTEL       DRN          R$  000000000607500000000060750000000006075000000000607500000000060750000000006040000000000610000001000000000000000100000000000000607500000000000000009999123100000010000000000000BRITLCBDR005112
012013123002ITSA3       010ITAUSA      ON  EJ  N1   R$  000000000116400000000012700000000001164000000000124600000000012700000000001270000000000129500083000000000000228100000000000284402400000000000000009999123100000010000000000000BRITSAACNOR0350
012013123096ITSA3F      020ITAUSA      ON  EJ  N1   R$  000000000110000000000012300000000001100000000000118600000000012300000000001230000000000000000007000000000000000062000000000000073542000000000000009999123100000010000000000000BRITSAACNOR0350
012013123002ITSA4       010ITAUSA      PN  EJ  N1   R$  000000000088700000000009000000000000886000000000089100000000008900000000000889000000000089209609000000000007161400000000006381099700000000000000009999123100000010000000000000BRITSAACNPR7350
012013123096ITSA4F      020ITAUSA      PN  EJ  N1   R$  000000000089000000000009050000000000887000000000089200000000008890000000000889000000000089900074000000000000001482000000000001323194000000000000009999123100000010000000000000BRITSAACNPR7350
012013123062ITSA4T      030ITAUSA      PN  EJ  N1030R$  000000000089400000000008970000000000894000000000089600000000008970000000000000000000000000000006000000000000013500000000000012103426000000000000009999123100000010000000000000BRITSAACNPR7350
012013123078ITSAA9      070ITSA    /EJ PN      N1000R$  000000000002100000000000210000000000021000000000002100000000000210000000000000000000000003500001000000000000001500000000000000031500000000000089202014012000000010000000000000BRITSAACNPR7348
012013123078ITSAA92     070ITSA    /EJ PN      N1000R$  000000000000700000000000070000000000007000000000000700000000000070000000000000000000000000000001000000000000000600000000000000004200000000000091302014012000000010000000000000BRITSAACNPR7349
012013123078ITSAA94     070ITSA    /EJ PN      N1000R$  000000000000300000000000030000000000003000000000000300000000000030000000000000000000000000000001000000000000000400000000000000001200000000000093202014012000000010000000000000BRITSAACNPR7348
012013123002ITUB3       010ITAUUNIBANCOON  EJ  N1   R$  000000000292600000000029600000000002923000000000294000000000029450000000002926000000000294500147000000000000025400000000000074684100000000000000009999123100000010000000000000BRITUBACNOR4169
012013123096ITUB3F      020ITAUUNIBANCOON  EJ  N1   R$  000000000290000000000029600000000002900000000000292900000000029600000000002910000000000296000015000000000000000432000000000001265623000000000000009999123100000010000000000000BRITUBACNOR4169
012013123002ITUB4       010ITAUUNIBANCOPN  EJ  N1   R$  000000000316500000000032070000000003135000000000316400000000031350000000003135000000000314014048000000000009693400000000030673908600000000000000009999123100000010000000000000BRITUBACNPR1169
012013123096ITUB4F      020ITAUUNIBANCOPN  EJ  N1   R$  000000000316000000000032000000000003150000000000317400000000031500000000003150000000000316600121000000000000002663000000000008448279000000000000009999123100000010000000000000BRITUBACNPR1169
012013123062ITUB4T      030ITAUUNIBANCOPN  EJ  N1016R$  000000000317800000000031790000000003178000000000317800000000031790000000000000000000000000000002000000000000001000000000000003178293000000000000009999123100000010000000000000BRITUBACNPR1169
012013123062ITUB4T      030ITAUUNIBANCOPN  EJ  N1060R$  000000000325900000000032600000000003259000000000325900000000032600000000000000000000000000000002000000000000540000000000001760294970000000000000009999123100000010000000000000BRITUBACNPR1169
012013123062ITUB4T      030ITAUUNIBANCOPN  EJ  N1091R$  000000000324000000000032410000000003240000000000324000000000032410000000000000000000000000000002000000000000002700000000000008748154000000000000009999123100000010000000000000BRITUBACNPR1169
012013123062ITUB4T      030ITAUUNIBANCOPN  EJ  N1182R$  000000000332400000000033250000000003324000000000332400000000033250000000000000000000000000000004000000000000002200000000000007313958000000000000009999123100000010000000000000BRITUBACNPR1169
012013123078ITUBA31     070ITUB  FM/EJ PN      N1000R$  000000000013400000000001570000000000126000000000013900000000001260000000000125000000000013000053000000000000096500000000000013426100000000000308002014012000000010000000000000BRITUBACNPR1165
012013123078ITUBA32     070ITUB  FM/EJ PN      N1000R$  000000000006400000000000860000000000063000000000007300000000000640000000000062000000000007400070000000000000171400000000000012520400000000000317902014012000000010000000000000BRITUBACNPR1164
012013123078ITUBA33     070ITUB  FM/EJ PN      N1000R$  000000000002500000000000320000000000025000000000002600000000000260000000000019000000000003000033000000000000063900000000000001715600000000000327902014012000000010000000000000BRITUBACNPR1164
012013123078ITUBA34     070ITUB  FM/EJ PN      N1000R$  000000000001200000000000130000000000012000000000001200000000000130000000000010000000000000000021000000000000014000000000000000172200000000000335502014012000000010000000000000BRITUBACNPR1163
012013123078ITUBA35     070ITUB  FM/EJ PN      N1000R$  000000000000300000000000040000000000003000000000000300000000000040000000000002000000000000000010000000000000021900000000000000068700000000000347902014012000000010000000000000BRITUBACNPR1164
012013123078ITUBA36     070ITUB    /EJ PN      N1000R$  000000000000200000000000020000000000002000000000000200000000000020000000000000000000000000200001000000000000005800000000000000011600000000000358102014012000000010000000000000BRITUBACNPR1166
012013123078ITUBA60     070ITUB    /EJ PN      N1000R$  000000000017300000000001910000000000173000000000017700000000001910000000000000000000000000000003000000000000007800000000000001387800000000000302902014012000000010000000000000BRITUBACNPR1168
012013123078ITUBB31     070ITUB  FM/EJ PN      N1000R$  000000000017800000000002040000000000178000000000018900000000001880000000000000000000000000000014000000000000023000000000000004359600000000000308202014021700000010000000000000BRITUBACNPR1167
012013123078ITUBB32     070ITUB  FM/EJ PN      N1000R$  000000000013500000000001390000000000118000000000012600000000001180000000000000000000000000000006000000000000009200000000000001161100000000000317902014021700000010000000000000BRITUBACNPR1164
012013123078ITUBB33     070ITUB  FM/EJ PN      N1000R$  000000000008400000000000900000000000083000000000008600000000000830000000000050000000000008500012000000000000024700000000000002140800000000000325402014021700000010000000000000BRITUBACNPR1162
012013123078ITUBB34     070ITUB  FM/EJ PN      N1000R$  000000000004500000000000490000000000043000000000004500000000000430000000000038000000000000000007000000000000010900000000000000500900000000000337902014021700000010000000000000BRITUBACNPR1164
012013123078ITUBB35     070ITUB  FM/EJ PN      N1000R$  000000000001900000000000260000000000019000000000002200000000000260000000000012000000000000000002000000000000000900000000000000020600000000000348102014021700000010000000000000BRITUBACNPR1166
012013123078ITUBB36     070ITUB    /EJ PN      N1000R$  000000000001100000000000120000000000011000000000001100000000000120000000000000000000000000000023000000000000040000000000000000452000000000000358202014021700000010000000000000BRITUBACNPR1167
012013123078ITUBC34     070ITUB    /EJ PN      N1000R$  000000000008100000000000810000000000078000000000007900000000000780000000000055000000000009100019000000000000036000000000000002849500000000000338102014031700000010000000000000BRITUBACNPR1166
012013123078ITUBD33     070ITUB    /EJ PN      N1000R$  000000000016600000000001740000000000160000000000016500000000001600000000000000000000000000000008000000000000015000000000000002485600000000000328202014042200000010000000000000BRITUBACNPR1167
012013123078ITUBD34     070ITUB    /EJ PN      N1000R$  000000000011400000000001140000000000114000000000011400000000001140000000000000000000000000000001000000000000001900000000000000216600000000000338202014042200000010000000000000BRITUBACNPR1167
012013123078ITUBD35     070ITUB    /EJ PN      N1000R$  000000000008600000000000860000000000086000000000008600000000000860000000000000000000000000000001000000000000000500000000000000043000000000000348202014042200000010000000000000BRITUBACNPR1167
012013123078ITUBD38     070ITUB    /EJ PN      N1000R$  000000000003000000000000300000000000030000000000003000000000000300000000000000000000000000000001000000000000001900000000000000057000000000000378302014042200000010000000000000BRITUBACNPR1168
012013123078ITUBE3      070ITUB    /EJ PN      N1000R$  000000000018100000000001830000000000173000000000017800000000001730000000000000000000000000000009000000000000015000000000000002681400000000000330402014051900000010000000000000BRITUBACNPR1162
012013123082ITUBM29     080ITUBE   /EJ PN      N1000R$  000000000000500000000000050000000000005000000000000500000000000050000000000000000000000000000001000000000000002500000000000000012500000000000287902014012000000010000000000000BRITUBACNPR1164
012013123082ITUBM30     080ITUBE FM/EJ PN      N1000R$  000000000001000000000000130000000000010000000000001200000000000120000000000000000000000000000003000000000000004200000000000000054200000000000297902014012000000010000000000000BRITUBACNPR1164
012013123082ITUBM31     080ITUBE FM/EJ PN      N1000R$  000000000003200000000000320000000000025000000000003000000000000310000000000010000000000010000021000000000000022600000000000000679000000000000308002014012000000010000000000000BRITUBACNPR1165
012013123082ITUBM32     080ITUBE FM/EJ PN      N1000R$  000000000006700000000000670000000000050000000000006000000000000620000000000050000000000000000034000000000000069200000000000004173200000000000317902014012000000010000000000000BRITUBACNPR1164
012013123082ITUBM33     080ITUBE FM/EJ PN      N1000R$  000000000012600000000001260000000000103000000000011700000000001180000000000000000000000000000016000000000000032500000000000003832500000000000327902014012000000010000000000000BRITUBACNPR1164
012013123082ITUBM60     080ITUBE   /EJ PN      N1000R$  000000000001900000000000200000000000019000000000001900000000000200000000000000000000000000000002000000000000002600000000000000050300000000000302902014012000000010000000000000BRITUBACNPR1168
012013123082ITUBM75     080ITUBE   /EJ PN      N1000R$  000000000007200000000000890000000000072000000000008100000000000890000000000000000000000000000002000000000000003500000000000000286000000000000322902014012000000010000000000000BRITUBACNPR1162
012013123082ITUBN2      080ITUBE   /EJ PN      N1000R$  000000000009600000000000980000000000094000000000009500000000000980000000000000000000000000000013000000000000013500000000000001288400000000000320402014021700000010000000000000BRITUBACNPR1162
012013123082ITUBN31     080ITUBE FM/EJ PN      N1000R$  000000000005500000000000620000000000055000000000006100000000000620000000000000000000000000000015000000000000015000000000000000917400000000000308202014021700000010000000000000BRITUBACNPR1167
012013123082ITUBN32     080ITUBE FM/EJ PN      N1000R$  000000000009800000000000980000000000084000000000008700000000000970000000000000000000000000000008000000000000013300000000000001168600000000000317902014021700000010000000000000BRITUBACNPR1164
012013123082ITUBN33     080ITUBE FM/EJ PN      N1000R$  000000000012300000000001290000000000117000000000012000000000001290000000000000000000000000000006000000000000011600000000000001399600000000000325402014021700000010000000000000BRITUBACNPR1162
012013123082ITUBO31     080ITUBE   /EJ PN      N1000R$  000000000008300000000000870000000000083000000000008600000000000850000000000000000000000008900005000000000000005600000000000000482900000000000308102014031700000010000000000000BRITUBACNPR1166
012013123002JBDU3       010J B DUARTE  ON           R$  000000000002700000000000310000000000027000000000002800000000000300000000000027000000000003000020000000000000076000000000000002163000000000000000009999123100000010000000000000BRJBDUACNOR6136
012013123002JBDU4       010J B DUARTE  PN           R$  000000000002400000000000260000000000024000000000002500000000000260000000000024000000000002600017000000000000079000000000000001979000000000000000009999123100000010000000000000BRJBDUACNPR3136
012013123096JBDU4F      020J B DUARTE  PN           R$  000000000002400000000000240000000000023000000000002300000000000240000000000024000000000002500004000000000000000825000000000000019208000000000000009999123100000010000000000000BRJBDUACNPR3136
012013123002JBSS3       010JBS         ON      NM   R$  000000000088100000000008980000000000870000000000088600000000008770000000000877000000000087906210000000000003004700000000002664710000000000000000009999123100000010000000000000BRJBSSACNOR8108
012013123096JBSS3F      020JBS         ON      NM   R$  000000000085400000000009000000000000849000000000088500000000008730000000000873000000000089800013000000000000000351000000000000310389000000000000009999123100000010000000000000BRJBSSACNOR8108
012013123062JBSS3T      030JBS         ON      NM182R$  000000000093200000000009330000000000932000000000093200000000009330000000000000000000000000000002000000000000022000000000000020513966000000000000009999123100000010000000000000BRJBSSACNOR8108
012013123002JFEN3       010JOAO FORTES ON           R$  000000000059400000000005950000000000594000000000059400000000005950000000000595000000000060000013000000000000470500000000000279947200000000000000009999123100000010000000000000BRJFENACNOR0051
012013123002JHSF3       010JHSF PART   ON      NM   R$  000000000043200000000004360000000000418000000000042300000000004260000000000426000000000043201186000000000001017300000000000430604300000000000000009999123100000010000000000000BRJHSFACNOR2110
012013123096JHSF3F      020JHSF PART   ON      NM   R$  000000000042900000000004330000000000424000000000042700000000004330000000000435000000000044000004000000000000000090000000000000038479000000000000009999123100000010000000000000BRJHSFACNOR2110
012013123062JHSF3T      030JHSF PART   ON      NM016R$  000000000042600000000004270000000000426000000000042600000000004270000000000000000000000000000002000000000000010000000000000004264366000000000000009999123100000010000000000000BRJHSFACNOR2110
012013123062JHSF3T      030JHSF PART   ON      NM030R$  000000000043400000000004350000000000434000000000043400000000004350000000000000000000000000000002000000000000003000000000000001302439000000000000009999123100000010000000000000BRJHSFACNOR2110
012013123002JNJB34      010JOHNSON     DRN          R$  000000002138600000000213860000000021386000000002138600000000213860000000021347000000002198000001000000000000000100000000000002138600000000000000009999123100000010000000000000BRJNJBBDR002108
012013123002JOPA4       010JOSAPAR     PN           R$  000000000220000000000022000000000002200000000000220000000000022000000000002200000000000236000001000000000000000200000000000000440000000000000000009999123100000010000000000000BRJOPAACNPR2124
012013123002JPMC34      010JPMORGAN    DRN          R$  000000000685000000000068500000000006850000000000685000000000068500000000006775000000000687000001000000000000000100000000000000685000000000000000009999123100000010000000000000BRJPMCBDR009107
012013123012JRDM11B     010FII SHOPJSULCI      MB   R$  000000000910000000000091000000000009100000000000910000000000091000000000008900000000000900000001000000000000000001000000000000009100000000000000009999123100000010000000000000BRJRDMCTF002115
012013123002JSLG3       010JSL         ON      NM   R$  000000000161600000000016210000000001596000000000160500000000015960000000001595000000000160900660000000000000235600000000000378163800000000000000009999123100000010000000000000BRJSLGACNOR2106
012013123096JSLG3F      020JSL         ON      NM   R$  000000000159500000000015950000000001475000000000151900000000015000000000001580000000000163600007000000000000000053000000000000080510000000000000009999123100000010000000000000BRJSLGACNOR2106
012013123012JSRE11      010FII JS REAL CI           R$  000000008999000000000899900000000089990000000008999000000000899900000000089000000000008999000007000000000000000041000000000003689590000000000000009999123100000010000000000000BRJSRECTF007133
012013123002KEPL3       010KEPLER WEBERON           R$  000000000405000000000041080000000004040000000000407300000000041000000000004041000000000410000115000000000000035100000000000142995500000000000000009999123100000010000000000000BRKEPLACNOR1041
012013123096KEPL3F      020KEPLER WEBERON           R$  000000000400500000000040850000000004005000000000404600000000040770000000004036000000000407700029000000000000000764000000000003091718000000000000009999123100000010000000000000BRKEPLACNOR1041
012013123002KLBN4       010KLABIN S/A  PN      N1   R$  000000000121500000000012330000000001211000000000122500000000012260000000001225000000000122802582000000000001767500000000002165264700000000000000009999123100000010000000000000BRKLBNACNPR9128
012013123096KLBN4F      020KLABIN S/A  PN      N1   R$  000000000121800000000012490000000001187000000000122400000000012060000000001206000000000122800019000000000000000711000000000000870680000000000000009999123100000010000000000000BRKLBNACNPR9128
012013123062KLBN4T      030KLABIN S/A  PN      N1182R$  000000000128600000000012870000000001286000000000128600000000012870000000000000000000000000000002000000000000016000000000000020585210000000000000009999123100000010000000000000BRKLBNACNPR9128
012013123012KNCR11      010FII KINEA RICI           R$  000000010749900000001079000000000106300000000010679900000001079000000000106502000000010780000021000000000000000931000000000099430541000000000000009999123100000010000000000000BRKNCRCTF000113
012013123012KNRI11      010FII KINEA   CI           R$  000000012500000000001258500000000124000000000012527300000001258500000000125800000000012585000051000000000000000313000000000039210608000000000000009999123100000010000000000000BRKNRICTF007136
012013123002KROT3       010KROTON      ON      NM   R$  000000000387400000000039420000000003868000000000390900000000039260000000003926000000000392803240000000000000950300000000003715268200000000000000009999123100000010000000000000BRKROTACNOR9111
012013123096KROT3F      020KROTON      ON      NM   R$  000000000385000000000039500000000003850000000000390400000000038560000000003856000000000393500034000000000000000822000000000003209643000000000000009999123100000010000000000000BRKROTACNOR9111
012013123002LAME3       010LOJAS AMERICON           R$  000000000134400000000013670000000001343000000000136100000000013670000000001349000000000136700808000000000000507500000000000691031200000000000000009999123100000010000000000000BRLAMEACNOR9185
012013123096LAME3F      020LOJAS AMERICON           R$  000000000142500000000015000000000001425000000000144200000000015000000000001346000000000000000003000000000000000065000000000000093750000000000000009999123100000010000000000000BRLAMEACNOR9185
012013123002LAME4       010LOJAS AMERICPN           R$  000000000156600000000015890000000001566000000000157600000000015730000000001573000000000158604558000000000001839800000000002900515800000000000000009999123100000010000000000000BRLAMEACNPR6185
012013123096LAME4F      020LOJAS AMERICPN           R$  000000000157500000000015990000000001545000000000157400000000015500000000001550000000000158300011000000000000000288000000000000453488000000000000009999123100000010000000000000BRLAMEACNPR6185
012013123062LAME4T      030LOJAS AMERICPN        045R$  000000000159700000000015980000000001597000000000159700000000015980000000000000000000000000000002000000000000030000000000000047937501000000000000009999123100000010000000000000BRLAMEACNPR6185
012013123002LCAM3       010LOCAMERICA  ON      NM   R$  000000000065600000000007000000000000650000000000068600000000007000000000000653000000000070000164000000000000070000000000000048054600000000000000009999123100000010000000000000BRLCAMACNOR3105
012013123096LCAM3F      020LOCAMERICA  ON      NM   R$  000000000065100000000006510000000000640000000000064900000000006400000000000603000000000070600006000000000000000149000000000000096848000000000000009999123100000010000000000000BRLCAMACNOR3105
012013123002LEVE3       010METAL LEVE  ON      NM   R$  000000000266600000000027590000000002666000000000272800000000027400000000002738000000000274000403000000000000081900000000000223444700000000000000009999123100000010000000000000BRLEVEACNOR2168
012013123096LEVE3F      020METAL LEVE  ON      NM   R$  000000000266500000000027550000000002665000000000272500000000027490000000002665000000000279300007000000000000000101000000000000275314000000000000009999123100000010000000000000BRLEVEACNOR2168
012013123002LIGT3       010LIGHT S/A   ON      NM   R$  000000000219100000000022500000000002191000000000221400000000022120000000002210000000000221201349000000000000329700000000000730067300000000000000009999123100000010000000000000BRLIGTACNOR2115
012013123096LIGT3F      020LIGHT S/A   ON      NM   R$  000000000219200000000022500000000002153000000000222000000000021530000000002153000000000225000033000000000000001008000000000002237825000000000000009999123100000010000000000000BRLIGTACNOR2115
012013123002LINX3       010LINX        ON      NM   R$  000000000480100000000048590000000004791000000000482900000000047910000000004791000000000484300395000000000000061100000000000295105500000000000000009999123100000010000000000000BRLINXACNOR0102
012013123096LINX3F      020LINX        ON      NM   R$  000000000500000000000050000000000004824000000000487600000000048390000000004800000000000000000005000000000000000168000000000000819312000000000000009999123100000010000000000000BRLINXACNOR0102
012013123002LIXC3       010LIX DA CUNHAON           R$  000000000022600000000002260000000000215000000000022300000000002150000000000215000000000023000005000000000000001200000000000000267900000000000000009999123100000010000000000000BRLIXCACNOR3137
012013123002LIXC4       010LIX DA CUNHAPN           R$  000000000025500000000002700000000000250000000000025500000000002600000000000250000000000026000019000000000000015100000000000003850500000000000000009999123100000010000000000000BRLIXCACNPR0141
012013123062LIXC4T      030LIX DA CUNHAPN        030R$  000000000026100000000002620000000000261000000000026100000000002620000000000000000000000000000002000000000000002300000000000000602365000000000000009999123100000010000000000000BRLIXCACNPR0141
012013123002LLIS3       010LE LIS BLANCON      NM   R$  000000000057000000000006040000000000570000000000058900000000006000000000000598000000000060000786000000000001328900000000000782888200000000000000009999123100000010000000000000BRLLISACNOR4109
012013123096LLIS3F      020LE LIS BLANCON      NM   R$  000000000055000000000005700000000000501000000000053000000000005010000000000501000000000060000006000000000000000081000000000000042953000000000000009999123100000010000000000000BRLLISACNOR4109
012013123062LLIS3T      030LE LIS BLANCON      NM091R$  000000000059600000000005970000000000596000000000059600000000005970000000000000000000000000000002000000000000003000000000000001790719000000000000009999123100000010000000000000BRLLISACNOR4109
012013123002LLXL3       010LLX LOG     ON      NM   R$  000000000011100000000001150000000000108000000000011100000000001080000000000108000000000011002284000000000003367900000000000375949800000000000000009999123100000010000000000000BRLLXLACNOR8103
012013123096LLXL3F      020LLX LOG     ON      NM   R$  000000000010800000000001100000000000108000000000010800000000001100000000000110000000000011900003000000000000000077000000000000008370000000000000009999123100000010000000000000BRLLXLACNOR8103
012013123002LOGN3       010LOG-IN      ON      NM   R$  000000000082400000000008290000000000818000000000082100000000008200000000000820000000000082400321000000000000220000000000000180826200000000000000009999123100000010000000000000BRLOGNACNOR3102
012013123096LOGN3F      020LOG-IN      ON      NM   R$  000000000081800000000008240000000000810000000000081700000000008100000000000820000000000097300053000000000000001816000000000001485452000000000000009999123100000010000000000000BRLOGNACNOR3102
012013123002LPSB3       010LOPES BRASILON      NM   R$  000000000142700000000014770000000001426000000000144700000000014440000000001444000000000144700497000000000000116500000000000168658100000000000000009999123100000010000000000000BRLPSBACNOR0108
012013123096LPSB3F      020LOPES BRASILON      NM   R$  000000000142700000000014650000000001427000000000144100000000014650000000001431000000000147000007000000000000000204000000000000294014000000000000009999123100000010000000000000BRLPSBACNOR0108
012013123002LREN3       010LOJAS RENNERON  EJ  NM   R$  000000000607000000000061530000000006006000000000609100000000061000000000006099000000000610003333000000000000622700000000003793080900000000000000009999123100000010000000000000BRLRENACNOR1168
012013123096LREN3F      020LOJAS RENNERON  EJ  NM   R$  000000000598000000000062990000000005973000000000608000000000060600000000006060000000000629900022000000000000000512000000000003113157000000000000009999123100000010000000000000BRLRENACNOR1168
012013123062LREN3T      030LOJAS RENNERON  EJ  NM091R$  000000000617100000000061720000000006171000000000617100000000061720000000000000000000000000000002000000000000000500000000000003085720000000000000009999123100000010000000000000BRLRENACNOR1168
012013123002LUPA3       010LUPATECH    ON      NM   R$  000000000006700000000000690000000000067000000000006700000000000680000000000068000000000006900046000000000000171700000000000011608500000000000000009999123100000010000000000000BRLUPAACNOR8103
012013123096LUPA3F      020LUPATECH    ON      NM   R$  000000000006700000000000670000000000067000000000006700000000000670000000000067000000000006800001000000000000000008000000000000000536000000000000009999123100000010000000000000BRLUPAACNOR8103
012013123062LUPA3T      030LUPATECH    ON      NM120R$  000000000007000000000000710000000000070000000000007000000000000710000000000000000000000000000002000000000000002000000000000000140012000000000000009999123100000010000000000000BRLUPAACNOR8103
012013123002MAGG3       010MAGNESITA SAON      NM   R$  000000000057800000000005900000000000577000000000058500000000005900000000000583000000000059000150000000000000168700000000000098840600000000000000009999123100000010000000000000BRMAGGACNOR4104
